:100000000C942A000C9434000C9436000C943400A8
:100010000C9434000C9434000C9434000C94340090
:100020000C9434000C9434000C9434000C94340080
:100030000C9434000C9434000C9434000C94340070
:100040000C9434000C9434000C9434000C94340060
:100050000C94340011241FBECFE5D4E0DEBFCDBF29
:100060000E9448000C9452000C9400001F920F92C2
:100070000FB60F9211248F939F939BB381E0892732
:100080008BBB9F918F910F900FBE0F901F90189573
:10009000D09A939A8BB780688BBF85B7886085BFED
:0800A0007894FFCFF894FFCF24
:00000001FF
