S00E0000627574746F6E2E737265637A
S11300000C942A000C9434000C9434000C943400A6
S11300100C9434000C9434000C9434000C9434008C
S11300200C9434000C9434000C9434000C9434007C
S11300300C9434000C9434000C9434000C9434006C
S11300400C9434000C9434000C9434000C9434005C
S11300500C94340011241FBECFE5D8E0DEBFCDBF21
S11300600E9436000C9449000C940000D19AD09858
S1130070D89AD99892E0C899FECFEFECF7E031977F
S1130080F1F700C00000C89BFECF8BB389278BBB60
S1090090F2CFF894FFCF4B
S9030000FC
