:100000003FC04CC0B8C14AC049C048C047C046C044
:1000100045C044C01616FF0C0011110A120D15162A
:10002000161616FF0A0D0D130E0505151616FF7F81
:10003000417F00007F79494F41497F0F087E4F493A
:10004000797F497903017F7F497F4F497F7F097F0E
:100050007F49367F41637F413E7F49417F090141AE
:100060007F417F027F7F017E7F09763F403F0036E0
:1000700000000000A81F2001DA028D14AFA1C80003
:1000800011241FBECFE9CDBF20E0A0E6B0E001C043
:100090001D92A436B207E1F77ED1A5C1B1CF87B3D7
:1000A000897F87BB88B3897F88BB089598E0BA9A17
:1000B00088230CF4BA98B998B99A880F9150B9F777
:1000C000BA98B998B99A0895BA9AB99AEFDF08958B
:1000D000BA9AB998BA9808950F931F93CF93DF9364
:1000E000DEDF88E7F1DF80E0E1DFC4E7D0E00DE7A5
:1000F00010E0FE018491DADF2196C017D107C9F71D
:10010000E7DFDF91CF911F910F910895CF93DF9398
:10011000C82FD62F88E7D8DF80E0C8DF82E2C6DFAD
:100120008D2FC4DF81E08D0FC1DF8C2F8F70BEDF7C
:100130008C2F82958F708061B9DF8D2F806BB6DF39
:10014000C7DFDF91CF9108950F931F93CF93DF9374
:10015000C62F9C01207F332722953295307F32278E
:10016000207F32278F709927822B932B9C01220F9F
:10017000331F220F331F822B932B837393739C01A6
:10018000220F331F822B932B857595758C01000FE1
:10019000111F082B192B662339F0D12F802F86DFF2
:1001A0008D2F84DFC150D1F7DF91CF911F910F9137
:1001B0000895CF93C82FCC0FC80FEC2FF0E0E15D6E
:1001C000FF4F849162E090E0BFDFE1E0EC0FF0E0F0
:1001D000E15DFF4F849163E090E0B6DFCE5FEC2FEE
:1001E000F0E0E15DFF4F849162E090E0ADDF80E000
:1001F0005DDF80E05BDF80E059DF80E057DFCF919B
:100200000895CF93DF93EC0188E75EDF80E44EDF53
:10021000FE0184918F3F31F0CCDF2196FE01849165
:100220008F3FD1F755DFDF91CF910895CF93C82F3E
:1002300088E74ADF80E43ADF8C2F82958F70B9DF40
:100240008C2F8F70B6DF44DFCF910895BB98AB9AA7
:100250001FBC83E083BF78940895482F4695469548
:100260004695463008F446E090916000891760F4A6
:100270002091600030E0281B310950E081E0241714
:10028000350774F080E0089590916000282F30E0E9
:10029000291B310950E081E0241735070CF080E07C
:1002A0000895CF92DF92EF92FF92CF93B399FECF52
:1002B00084E5D3DF882309F444C0C0E2C12CD12CEB
:1002C0007601F694E794D794C794B39BFECF8BE066
:1002D000C4DF8823B1F1B399FECF80E2BEDF88236B
:1002E00019F06894F7F804C08BE0B7DF882349F170
:1002F000C15039F7B39BFECF8BE0AFDF882309F104
:10030000A70166277727842F90E08F0D911D8F3FDF
:100310009105B4F0409363008C2D90E08D0D911DFC
:100320008F3F910539F4D12CD0926200C0926100C8
:1003300081E007C0D0926200C092610081E001C0FC
:100340008C2FCF91FF90EF90DF90CF9008958BB7D7
:1003500080628BBFB39BFECFB399FECFB39BFECF22
:1003600089EA7BDF8823B1F39CDF882399F39BB76D
:100370009F7D9BBF08951F920F920FB60F9211247D
:100380008F9382B78093600012BE8F910F900FBE43
:100390000F901F9018955ADF9FDE61E080E0B6DE77
:1003A000C1E6D0E0D4DF60E080E0B0DE84E290E03F
:1003B00028DF80916100909162008F3F910521F0CC
:1003C00018F0892F33DF03C084E190E01ADF8881C1
:1003D0002DDF62E080E09ADE87E190E012DF80911D
:0A03E000630024DFDFCFF894FFCFA5
:00000001FF
