S01800004A6F79737469636B5F4578616D706C652E7372656391
S11300000C942A000C9434000C9434000C943400A6
S11300100C9434000C9434000C9434000C9434008C
S11300200C9434000C9434000C9434000C9434007C
S11300300C9434000C9434000C9434000C9434006C
S11300400C9434000C9434000C9434000C9434005C
S11300500C94340011241FBECFE5D8E0DEBFCDBF21
S11300600E9454000C945D000C9400001ABA87E8B6
S113007086B980E487B9089597B18F70982B97B9A2
S1130080369A349BFECF85E38A95F1F7000024B1BC
S113009085B190E0982F8827820F911D089583B72A
S11300A0896683BFBB9A08950E9436000E944F0060
S11100B080E00E943C008CBFFBCFF894FFCF91
S9030000FC
