:100000000C942A000C943F000C943F000C943F0089
:100010000C943F000C943F000C943F000C943F0064
:100020000C943F000C943F000C943F000C943F0054
:100030000C943F000C943F000C943F000C943F0044
:100040000C943F000C943F000C943F000C943F0034
:100050000C943F0011241FBECFE5D4E0DEBFCDBF1E
:1000600010E0A0E6B0E0E6ECF6E002C005900D92EC
:10007000AE38B107D9F70E9494000C9461030C9438
:10008000000088BB85B38C7F85BBAA9A82E08A95E5
:10009000F1F700C0AA988FE697E10197F1F700C049
:1000A0000000089588BBA99885B3856085BB82E070
:1000B0008A95F1F700C0AA988FEC97E00197F1F7C5
:1000C00000C00000089584B3876084BB8FEF87BBB6
:1000D0008FE39CE90197F1F700C0000088E30E94DC
:1000E00041008CE00E94410086E00E94410081E0D6
:1000F0000E94410080E80E9441000895CF93DF9361
:10010000EC018881882331F021960E945200899168
:100110008111FBCFDF91CF91089581E00E944100D2
:1001200080E80E9441000895CF93DF93CDB7DEB7FA
:1001300065970FB6F894DEBF0FBECDBF0E94630077
:10014000969A10E20F2E412CF2E15F2EFAE76F2E05
:10015000712CF02D1FBC1DBC1CBC18BF8EB581645A
:100160008EBD08B605FEFDCFC6B4D7B418BF8EB598
:1001700080648EBD08B605FEFDCFE6B4F7B418BFA7
:100180008EB581648EBD08B605FEFDCF86B497B4EA
:1001900018BF1EBCCE14DF0408F058C0E814F904E0
:1001A00008F054C08C189D08A12CB12CC301B201D9
:1001B000A50194010E94D902CA01B9012AE0AE0149
:1001C0004F5F5F4F0E940603B7016C197D0980E005
:1001D00090E00E94DE016B017C01C501B4010E9428
:1001E000DE019B01AC01C701B6010E94360120E08F
:1001F00030E048EC52E40E946C020E94A801DC014D
:10020000CB014AE0BE01615F7F4F0E94FB0280E8A4
:100210000E94410080E690E00E947E00CE0101969F
:100220000E947E0087E690E00E947E0080EC0E94A3
:1002300041008FE690E00E947E00CE010F960E9462
:100240007E0086E790E00E947E0006C00E948D003E
:100250008FE790E00E947E002FE788E391E0215035
:1002600080409040E1F700C0000074CF0E944A0136
:100270000C9432020E942B0258F00E94240240F09B
:1002800029F45F3F29F00C941B0251110C94660273
:100290000C9421020E94430268F39923B1F3552381
:1002A00091F3951B550BBB27AA2762177307840789
:1002B00038F09F5F5F4F220F331F441FAA1FA9F31F
:1002C00035D00E2E3AF0E0E832D091505040E6950D
:1002D000001CCAF72BD0FE2F29D0660F771F881F6E
:1002E000BB1F261737074807AB07B0E809F0BB0B61
:1002F000802DBF01FF2793585F4F3AF09E3F510575
:1003000078F00C941B020C9466025F3FE4F3983E75
:10031000D4F3869577956795B795F7959F5FC9F75D
:10032000880F911D9695879597F90895E1E0660FDE
:10033000771F881FBB1F621773078407BA0720F057
:10034000621B730B840BBA0BEE1F88F7E0950895C0
:100350000E94AF016894B1110C94660208950E9446
:100360004B0288F09F5798F0B92F9927B751B0F0FA
:10037000E1F0660F771F881F991F1AF0BA95C9F729
:1003800014C0B13091F00E946502B1E008950C9460
:100390006502672F782F8827B85F39F0B93FCCF313
:1003A000869577956795B395D9F73EF490958095A6
:1003B000709561957F4F8F4F9F4F0895E89409C0C6
:1003C00097FB3EF490958095709561957F4F8F4F88
:1003D0009F4F9923A9F0F92F96E9BB279395F6959E
:1003E000879577956795B795F111F8CFFAF4BB0F1C
:1003F00011F460FF1BC06F5F7F4F8F4F9F4F16C080
:10040000882311F096E911C0772321F09EE8872F09
:10041000762F05C0662371F096E8862F70E060E0C5
:100420002AF09A95660F771F881FDAF7880F96953E
:10043000879597F9089597F99F6780E870E060E0E5
:1004400008959FEF80EC089500240A94161617066D
:1004500018060906089500240A94121613061406B5
:1004600005060895092E0394000C11F4882352F018
:10047000BB0F40F4BF2B11F460FF04C06F5F7F4FD0
:100480008F4F9F4F089557FD9058440F551F59F0B7
:100490005F3F71F04795880F97FB991F61F09F3F71
:1004A00079F087950895121613061406551FF2CF9A
:1004B0004695F1DF08C0161617061806991FF1CFEA
:1004C00086957105610508940895E894BB27662711
:1004D0007727CB0197F908950E947F020C9432028E
:1004E0000E94240238F00E942B0220F0952311F084
:1004F0000C941B020C94210211240C9466020E949D
:10050000430270F3959FC1F3950F50E0551F629F12
:10051000F001729FBB27F00DB11D639FAA27F00D5C
:10052000B11DAA1F649F6627B00DA11D661F829F83
:100530002227B00DA11D621F739FB00DA11D621F68
:10054000839FA00D611D221F749F3327A00D611D85
:10055000231F849F600D211D822F762F6A2F112467
:100560009F5750409AF0F1F088234AF0EE0FFF1F9A
:10057000BB1F661F771F881F91505040A9F79E3FF1
:10058000510580F00C941B020C9466025F3FE4F36B
:10059000983ED4F3869577956795B795F795E79547
:1005A0009F5FC1F7FE2B880F911D9695879597F950
:1005B0000895A1E21A2EAA1BBB1BFD010DC0AA1FA4
:1005C000BB1FEE1FFF1FA217B307E407F50720F0BC
:1005D000A21BB30BE40BF50B661F771F881F991F37
:1005E0001A9469F760957095809590959B01AC0180
:1005F000BD01CF010895BB274A3031F4992322F47D
:10060000BDE2909581959F4F0C943803BB272A300B
:1006100051F4992342F4BDE29095809570956195CF
:100620007F4F8F4F9F4F0C941603BB27FA01A62FC5
:100630006217710581059105330B30FB66F0AA271F
:10064000660F771F881F991FAA1FA21710F0A21B01
:1006500063953850A9F7A05DAA3308F0A95DA1936E
:1006600036F7B111B1931082CA010C945103BB2724
:10067000FB015527AA27880F991FAA1FA41710F05E
:10068000A41B83955051B9F7A05DAA3308F0A95D6A
:10069000A193009779F7B111B1931192CB010C940A
:1006A0005103DC01FC01672F71917723E1F7329749
:1006B00004C07C916D9370836291AE17BF07C8F33D
:0606C0000895F894FFCF3D
:1006C600467265713A200020487A20202020004496
:1006D6007574793A20002025202020202020004F04
:0E06E6005554204F462052414E4745212100D9
:00000001FF
