:100000000C942A000C9447000C9447000C94470071
:100010000C9447000C9447000C9447000C94470044
:100020000C9447000C9447000C9447000C94470034
:100030000C9447000C9447000C9447000C94470024
:100040000C9447000C9447000C9447000C94470014
:100050000C94470011241FBECFE5D8E0DEBFCDBF12
:1000600010E0A0E6B0E0E8E2F2E002C005900D92F8
:10007000A037B107D9F720E0A0E7B0E001C01D929A
:10008000A237B207E1F70E94FC000C9412010C9415
:10009000000030EF2FEF9FEE6FED5FEB4FE73ABBC5
:1000A0002BBB8BB38F708BBB000089B38F70809399
:1000B00070008F30B1F77FEF89EFE0E07150804042
:1000C000E040E1F700C0000089B38F7080937000BA
:1000D0008F3089F37FEF83EFE1E071508040E040A3
:1000E000E1F700C0000089B38F70809370008F30FB
:1000F00011F39BBB000089B38F70809370008F3029
:1001000019F01092710024C06BBB000089B38F708E
:10011000809370008F3021F081E08093710018C0CF
:100120005BBB000089B38F70809370008F3021F02B
:1001300082E0809371000CC04BBB000089B38F70CC
:10014000809370008F3009F4AACF83E08093710010
:10015000809170008E3059F4E0917100F0E0EE0F64
:10016000FF1FEE0FFF1FE05AFF4F808108958D3073
:1001700059F4E0917100F0E0EE0FFF1FEE0FFF1F4A
:10018000E05AFF4F818108958B3059F4E09171005E
:10019000F0E0EE0FFF1FEE0FFF1FE05AFF4F8281CE
:1001A0000895E0917100F0E0EE0FFF1FEE0FFF1FCA
:1001B000E05AFF4F838108951FBC1EBC8FB582603B
:1001C0008FBD8EB588618EBD8FB580628FBD8EB5B7
:1001D00081608EBD85EA91E097BD86BD089586E673
:1001E00089B98AB188698AB980B5866080BD089569
:1001F0005D9BFECF8CB908950E94EF008C9A949875
:100200008A98929A0E94EF000E94DC0082ED90E0B2
:1002100099BD88BD81E30E94F8000E9449000E94B8
:08022000F800FBCFF894FFCFBA
:100228003738392F3435362A3132332D20303D2BAB
:00000001FF
