:100000000C942A000C9434000C9434000C943400AA
:100010000C9434000C9434000C9434000C94340090
:100020000C9434000C9434000C9434000C94340080
:100030000C9434000C9434000C9434000C94340070
:100040000C9434000C9434000C9434000C94340060
:100050000C94340011241FBECFE5D8E0DEBFCDBF25
:100060000E9441000C9449000C94000012BE83B71A
:10007000816083BF08B600FEFDCF13BE81E088BF5C
:100080000895B89AC09A0E943600C0980E9436001F
:06009000F9CFF894FFCF48
:00000001FF
