S01C000041546D6567615F474C43445F54657874466F6E742E73726563C5
S11300000C942A000C943F000C943F000C943F0085
S11300100C943F000C943F000C943F000C943F0060
S11300200C943F000C943F000C943F000C943F0050
S11300300C943F000C943F000C943F000C943F0040
S11300400C943F000C943F000C943F000C943F0030
S11300500C943F0011241FBECFE5D4E0DEBFCDBF1A
S113006012E0A0E6B0E0E4E0F7E002C005900D92F3
S1130070A634B107D9F70E9445020C9480030C946E
S113008000008BBBA898A998AA9A8DE08A95F1F7ED
S11300900000AA988DE08A95F1F7000008958BBBC3
S11300A0A89AA998AA9A8DE08A95F1F70000AA98CF
S11300B08DE08A95F1F7000008958FEF8ABB84BB29
S11300C085B3886385BB8FE39CE90197F1F700C092
S11300D000008EE30E94410080E40E94410088EB0E
S11300E00E94410080EC0E9441008FE30E94410085
S11300F008951F93CF93DF9385B3886185BB18EB75
S1130100812F0E944100C0E4D0E080E00E944F00B3
S11301102197D9F71F5F103C99F780E40E944100B2
S113012088EB0E944100DF91CF911F9108952F9297
S11301303F924F925F926F927F928F929F92AF9273
S1130140BF92CF92DF92EF92FF920F931F93CF93C0
S1130150DF93CDB7DEB728970FB6F894DEBF0FBE96
S1130160CDBF2B01082F10E0C80188549F4F6C01AC
S1130170AB9AAC980E944100F2019081992309F452
S113018068C11195019511091695102F002717952F
S11301900795980125503C4F3E832D83F12CE12C8B
S11301A0812C0F2EFFE39F2EF02D612C712C68946F
S11301B0332433F86894222424F8960140E050E074
S11301C029833A834B835C83BF2CAE2C06C04D81BC
S11301D05E814615570508F43CC1903209F445C0C8
S11301E001E010E06301C00ED11E20E030E040E0E9
S11301F05FE36B2D7A2D882D992D0E945002E62EF7
S1130200F72E88879F830E94BC027695762F6627F7
S113021077956795C616D70611F50530110529F1AE
S113022080E40E94410085B3832585BB85B3822584
S113023085BB69817A818B819C810E94F2022B2D7E
S11302403A2D482D592D0E9450020E94C302862F38
S11302500E944100BE2CAF2C88849F8036010F5F22
S11302601F4F0630110509F0BDCF8D819E81861583
S1130270970508F4EEC0F2012081822F90E0809768
S1130280AC01440F551F440F551F840F951F04964E
S1130290AC01440F551F440F551F840F951F805AFE
S11302A09F4F892B39F0203209F051C08301E12C92
S11302B0F12C03C08301E12CF12CF201808190E048
S11302C08097FC01EE0FFF1FEE0FFF1FE80FF91FD1
S11302D0EE0DFF1DE05AFF4F80810E944F000F5F1B
S11302E01F4FC8018F739927892B29F585B383255F
S11302F085BB85B3822585BB69817A818B819C818D
S11303000E94F2022B2D3A2D482D592D0E945002A5
S11303100E94C302862F0E94410020E030E040E0AA
S11303205FE36B2D7A2D882D992D0E945002B62EF5
S1130330A72E882E992EFFEFEF1AFF0A25E0E2166A
S1130340F10409F0BACF35E0630E711C7BC0830160
S1130350E12CF12CF201808190E08097FC01EE0FFA
S1130360FF1FEE0FFF1FE80FF91FEE0DFF1DE05AF0
S1130370FF4F80810E944F000F5F1F4FC8018F7392
S11303809927892B29F585B3832585BB85B38225D8
S113039085BB69817A818B819C810E94F2022B2D1D
S11303A03A2D482D592D0E9450020E94C302862FD7
S11303B00E94410020E030E040E05FE36B2D7A2DA5
S11303C0882D992D0E945002B62EA72E882E992E84
S11303D0FFEFEF1AFF0A25E0E216F10409F0BACFA5
S11303E080E00E944F0036E0630E711CC3018F73DE
S11303F09927892B39F585B3832585BB85B3822558
S113040085BB69817A818B819C810E94F2029B0168
S1130410AC016B2D7A2D882D992D0E9450020E94DB
S1130420C302862F0E94410020E030E040E05FE3F9
S11304306B2D7A2D882D992D0E945002B62EA72E51
S1130440882E992E4FEF441A540AF201908191118B
S1130450BECE80E40E94410028960FB6F894DEBF19
S11304600FBECDBFDF91CF911F910F91FF90EF9001
S1130470DF90CF90BF90AF909F908F907F906F90C0
S11304805F904F903F902F9008950E945D000E94CE
S1130490790060E472E080E00E949700FFCF50583A
S11304A0BB27AA270E9467020C9446030E943803C4
S11304B038F00E943F0320F039F49F3F19F426F4EA
S11304C00C9435030EF4E095E7FB0C942F03E92F0D
S11304D00E94570358F3BA176207730784079507F6
S11304E020F079F4A6F50C9479030EF4E0950B2E24
S11304F0BA2FA02D0B01B90190010C01CA01A00172
S11305001124FF27591B99F0593F50F4503E68F1CC
S11305101A16F040A22F232F342F4427585FF3CF0D
S1130520469537952795A795F0405395C9F77EF4DE
S11305301F16BA0B620B730B840BBAF09150A1F027
S1130540FF0FBB1F661F771F881FC2F70EC0BA0FAD
S1130550621F731F841F48F4879577956795B79535
S1130560F7959E3F08F0B0CF9395880F08F0992730
S1130570EE0F9795879508950E94C3026894B11170
S11305800C947A0308950E945F0388F09F5798F0B3
S1130590B92F9927B751B0F0E1F0660F771F881F84
S11305A0991F1AF0BA95C9F714C0B13091F00E949E
S11305B07903B1E008950C947903672F782F882785
S11305C0B85F39F0B93FCCF3869577956795B395C5
S11305D0D9F73EF490958095709561957F4F8F4F34
S11305E09F4F0895E89409C097FB3EF49095809539
S11305F0709561957F4F8F4F9F4F9923A9F0F92FE5
S113060096E9BB279395F695879577956795B79562
S1130610F111F8CFFAF4BB0F11F460FF1BC06F5F48
S11306207F4F8F4F9F4F16C0882311F096E911C05A
S1130630772321F09EE8872F762F05C0662371F07B
S113064096E8862F70E060E02AF09A95660F771F8F
S1130650881FDAF7880F9695879597F9089597F983
S11306609F6780E870E060E008959FEF80EC089554
S113067000240A941616170618060906089500247D
S11306800A9412161306140605060895092E0394F7
S1130690000C11F4882352F0BB0F40F4BF2B11F46B
S11306A060FF04C06F5F7F4F8F4F9F4F089557FDCA
S11306B09058440F551F59F05F3F71F04795880FCC
S11306C097FB991F61F09F3F79F087950895121663
S11306D013061406551FF2CF4695F1DF08C016160F
S11306E017061806991FF1CF8695710561050894C0
S11306F00895E894BB2766277727CB0197F90895D7
S1070700F894FFCF97
S1130704000000000000005F000000070007001460
S11307147F147F14242A7F2A12231308646236491F
S11307245522500005030000001C22410000412210
S11307341C0014083E081408083E08080050300041
S1130744000808080808006060000020100804027B
S11307543E5149453E00427F400042615149462191
S113076441454B311814127F1027454545393C4AFD
S1130774494930017109050336494949360649494D
S1130784291E0036360000005636000008142241A3
S1130794001414141414004122140802015109060B
S11307A4324979413E7E1111117E7F494949363ED1
S11307B4414141227F4141221C7F494949417F09EA
S11307C40909013E4149497A7F0808087F00417FAD
S11307D441002040413F017F081422417F404040B2
S11307E4407F020C027F7F0408107F3E4141413E5A
S11307F47F090909063E4151215E7F0919294646AC
S11308044949493101017F01013F4040403F1F20D4
S113081440201F3F4038403F6314081463070870A6
S113082408076151494543007F414100020408100F
S1130834200041417F000402010204404040404042
S1130844000102040020545454787F484444383846
S113085444444420384444487F3854545418087E4B
S11308640901020C5252523E7F0804047800447D6C
S113087440002040443D007F1028440000417F4054
S1130884007C041804787C0804047838444444380C
S11308947C14141408081414187C7C0804040848F0
S11308A454545420043F4440203C4040207C1C20A9
S11308B440201C3C4030403C44281028440C5050F8
S11308C4503C4464544C44000836410000007F000A
S11308D4000041360800100808100878464146789C
S10908E441746D656C0017
S9030000FC
