S00D000044485431312E73726563D5
S11300000C942A000C9447000C9447000C9447006D
S11300100C9447000C9447000C9447000C94470040
S11300200C9447000C9447000C9447000C94470030
S11300300C9447000C9447000C9447000C94470020
S11300400C9447000C9447000C9447000C94470010
S11300500C94470011241FBECFE5D4E0DEBFCDBF12
S113006010E0A0E6B0E0E2EDF3E002C005900D92EE
S1130070AA37B107D9F720E0AAE7B0E001C01D9282
S1130080A038B207E1F70E9422010C94E7010C9416
S1130090000098B39F70282F207F922B98BBC098A4
S11300A0C19A35E03A95F1F70000C198EFE1F3E029
S11300B03197F1F700C0000028B32F70F0E18F9F53
S11300C0C0011124822B88BBC19A35E03A95F1F71F
S11300D00000C1988FE39FE10197F1F700C0000091
S11300E0089598B39F70282F207F922B98BBC09AB5
S11300F0C19A35E03A95F1F70000C198EFE1F3E0D9
S11301003197F1F700C0000028B32F70F0E18F9F02
S1130110C0011124822B88BBC19A35E03A95F1F7CE
S11301200000C1988FE39FE10197F1F700C0000040
S113013008958FEF87BB2FEF89EF90E02150804027
S11301409040E1F700C0000082E00E94490088E28C
S11301500E9449008CE00E94490086E00E94490008
S113016081E00E9449008FE39FE10197F1F700C00D
S113017000000895CF93DF93EC018881882331F048
S113018021960E94710089918111FBCFDF91CF915B
S11301900895CF93DF93EA01811108C0603178F4A8
S11301A0862F8F7080680E94490009C0813039F41D
S11301B0603128F4862F8F70806C0E944900CE0134
S11301C00E94BA00DF91CF91089581E00E94490016
S11301D08FE39FE10197F1F700C0000080E80E94DF
S11301E0490008958E9A8E988FE39CE90197F1F760
S11301F000C000008E9A08958E988699FECF80B331
S11302008699FECF089588E090E0869BFECFEFE5C7
S1130210FAEE3197F1F700C00000869B07C02091E9
S11302207A00220F216020937A0005C020917A0081
S1130230220F20937A008699FECF019731F780919F
S11302407A000895CF93DF9300D000D01F92CDB7EA
S1130250DEB70E9499000E94E50040E650E060E0AD
S113026080E00E94C9004BE650E061E080E00E941B
S1130270C9000E94F2000E94FC000E9403018093C6
S11302807F000E94030180937D000E9403018093FC
S11302907E000E94030180937C000E9403018093EE
S11302A07B00E0917F00F0E090917E009F01290F98
S11302B0311D90917D00290F311D90917C00290FF3
S11302C0311D482F50E02417350739F043E750E03B
S11302D060E080E00E94C9003EC04AE0BE016F5F5A
S11302E07F4FCF010E94B201AE014F5F5F4F6BE0C1
S11302F080E00E94C90080917D004AE0BE016F5FEA
S11303007F4F90E00E94B201AE014F5F5F4F6CE0FF
S113031080E00E94C90080917E004AE0BE016F5FC8
S11303207F4F90E00E94B201AE014F5F5F4F66E0E5
S113033081E00E94C90080917C004AE0BE016F5FA9
S11303407F4F90E00E94B201AE014F5F5F4F67E0C4
S113035081E00E94C9008FE19EE40197F1F700C09B
S1130360000087CFBB274A3031F4992322F4BDE241
S1130370909581959F4F0C94BE01BB27FB01552797
S1130380AA27880F991FAA1FA41710F0A41B8395EE
S11303905051B9F7A05DAA3308F0A95DA193009765
S11303A079F7B111B1931192CB010C94D701DC010F
S11303B0FC01672F71917723E1F7329704C07C9198
S11303C06D9370836291AE17BF07C8F30895F894D4
S10503D0FFCF59
S11303D248756D6964697479203D0054656D7020B7
S10D03E23D20004552524F52210005
S9030000FC
