S011000057617463685F446F672E73726563A3
S11300000C942A000C9434000C944C000C9434008E
S11300100C9434000C9434000C9434000C9434008C
S11300200C9434000C9434000C9434000C9434007C
S11300300C9434000C9434000C9434000C9434006C
S11300400C9434000C9434000C9434000C9434005C
S11300500C94340011241FBECFE5D8E0DEBFCDBF21
S11300600E943A000C9459000C94000088E181BD70
S113007011BC08958B98939A81B3806C81BB85B72A
S1130080886085BF8BB780688BBF7894CFE0C1BD93
S1130090969A0E943600FBCF1F920F920FB60F92D2
S11300A011249698839BFECF0F900FBE0F901F9044
S10900B01895F894FFCF3F
S9030000FC
