S017000054696D6572325F4354435F4D6F64652E73726563BD
S11300000C942A000C9434000C9434000C943400A6
S11300100C9434000C9434000C9434000C9434008C
S11300200C9434000C9434000C9434000C9434007C
S11300300C9434000C9434000C9434000C9434006C
S11300400C9434000C9434000C9434000C9434005C
S11300500C94340011241FBECFE5D8E0DEBFCDBF21
S11300600E9436000C944A000C9400008F9A9798D2
S113007045E439E380E823E699E243BD35BD08B69B
S113008007FEFDCF88BF23BD95BD08B607FEFDCF93
S10B009088BFF3CFF894FFCF01
S9030000FC
