:100000000C942A000C9434000C9434000C943400AA
:100010000C9434000C9434000C9434000C94340090
:100020000C9434000C9434000C9434000C94340080
:100030000C9434000C9434000C9434000C94340070
:100040000C9434000C9434000C9434000C94340060
:100050000C94340011241FBECFE5D8E0DEBFCDBF25
:100060000E9436000C94D5000C9400008FEF81BBE9
:1000700012BA1ABA8BBBC89906C064EF71E084EF5C
:1000800091E00E947100C99906C064EF71E084EFAD
:1000900091E00E948800CA9906C060E070E084EF99
:1000A00091E00E949F00CB9906C064EF71E080E070
:1000B00090E00E94B800CC99DECF0E94D100DBCF47
:1000C0009C0191B3906391BB9FB5926A9FBD9EB511
:1000D00098619EBD37BD26BD08958EB581608EBDE9
:1000E00008950F931F93CF93DF938C01EB01929AA6
:1000F000939888EE93E00E9460001BBD0ABD909A21
:100100009198D9BDC8BDDF91CF911F910F910895EE
:100110000F931F93CF93DF938C01EB019298939AE7
:1001200088EE93E00E9460001BBD0ABD9098919AF2
:10013000D9BDC8BDDF91CF911F910F9108950F9345
:100140001F93CF93DF938C01EB019298939A88EEE3
:1001500093E00E9460001BBD0ABD909A9198D9BDA2
:10016000C8BD0E946D00DF91CF911F910F9108953E
:100170000F931F93CF93DF938C01EB01929A939887
:1001800088EE93E00E9460001BBD0ABD9098919A92
:10019000D9BDC8BD0E946D00DF91CF911F910F9115
:0E01A00008958FB58F758FBD0895F894FFCF29
:00000001FF
