S00B00004144432E7372656351
S11300000C942A000C943F000C943F000C943F0085
S11300100C943F000C943F000C943F000C943F0060
S11300200C943F000C943F000C943F000C943F0050
S11300300C943F000C943F000C943F000C943F0040
S11300400C943F000C943F000C943F000C943F0030
S11300500C943F0011241FBECFE5D4E0DEBFCDBF1A
S113006010E0A0E6B0E0E2E0F2E002C005900D92FC
S1130070AE36B107D9F70E945A000C94FF000C94D5
S113008000001ABA87E886B980E487B9089597B161
S11300908F70982B97B9369A349BFECF8AE18A9554
S11300A0F1F700C024B185B190E0982F8827820F22
S11300B0911D0895CF93DF9300D000D01F92CDB748
S11300C0DEB70E9441000E94A00080E690E00E94FA
S11300D0BB0084EC0E947E0080E00E9447004AE05E
S11300E0BE016F5F7F4F0E94CA00CE0101960E943D
S11300F0BB008AE690E00E94BB00EBCF88BB85B3CF
S11301008C7F85BBAB9A82E08A95F1F700C0AB98EF
S11301108FE697E10197F1F700C00000089588BBCE
S1130120A99885B3896085BB82E08A95F1F700C000
S1130130AB988FEC97E00197F1F700C000000895A9
S113014084B38B6084BB8FEF87BB8FE39CE90197FB
S1130150F1F700C0000088E30E947E008CE00E945A
S11301607E0086E00E947E0081E00E947E0080E89E
S11301700E947E000895CF93DF93EC018881882349
S113018031F021960E948F0089918111FBCFDF917C
S1130190CF910895BB274A3031F4992322F4BDE26C
S11301A0909581959F4F0C94D600BB27FB01552752
S11301B0AA27880F991FAA1FA41710F0A41B8395C0
S11301C05051B9F7A05DAA3308F0A95DA193009737
S11301D079F7B111B1931192CB010C94EF00DC01CA
S11301E0FC01672F71917723E1F7329704C07C916A
S11301F06D9370836291AE17BF07C8F30895F894A6
S1050200FFCF2A
S11102024144432076616C75650020200000A5
S9030000FC
