:100000000C942A000C9434000C9434000C943400AA
:100010000C9434000C9434000C9434000C94340090
:100020000C9434000C9434000C9434000C94340080
:100030000C9434000C9434000C9434000C94340070
:100040000C9434000C9434000C9434000C94340060
:100050000C94340011241FBECFE5D8E0DEBFCDBF25
:100060000E9436000C94CE000C9400008FE081BBFF
:1000700082B3806782BBA9EF23E046E03CE0F3EF68
:10008000E8E074E062E051E0BCEF849922C0A2BBDA
:10009000849BFECF8FE39CE90197F1F700C000003D
:1000A00085E090E022BBCFE3DCE92197F1F700C0C7
:1000B000000042BBCFE3DCE92197F1F700C000006C
:1000C00032BBCFE3DCE92197F1F700C000000197D4
:1000D00049F785993EC0F2BB859BFECF8FE39CE933
:1000E0000197F1F700C0000085E090E0E2BBCFE3AC
:1000F000DCE92197F1F700C0000032BBCFE3DCE977
:100100002197F1F700C0000072BBCFE3DCE9219733
:10011000F1F700C0000042BBCFE3DCE92197F1F723
:1001200000C0000062BBCFE3DCE92197F1F700C01B
:10013000000022BBCFE3DCE92197F1F700C000000B
:1001400052BBCFE3DCE92197F1F700C00000019733
:1001500069F686999ACFB2BB869BFECF8FE39CE966
:100160000197F1F700C0000085E090E062BBCFE3AB
:10017000DCE92197F1F700C0000022BBCFE3DCE906
:100180002197F1F700C0000052BBCFE3DCE92197D3
:10019000F1F700C00000019749F777CFF894FFCF3F
:00000001FF
