:100000000C942A000C9434000C9434000C943400AA
:100010000C9434000C9434000C9434000C94340090
:100020000C9434000C9434000C9434000C94340080
:100030000C9434000C9434000C9434000C94340070
:100040000C9434000C9434000C9434000C94340060
:100050000C94340011241FBECFE5D8E0DEBFCDBF25
:100060000E9436000C9473010C9400008FEF81BB4A
:1000700012BA0E945A000E949100C1E00E944601FB
:1000800081E60E9468008FE39CE90197F1F700C0C8
:1000900000008FEF0E946800883219F482B38C2729
:1000A00082BB8FE39CE90197F1F700C000000E943A
:1000B0005201E4CFBB9ABC9ABD9ABF9ABE988DB14B
:1000C00081658DB98DB18C7F8DB9C49AC39808951F
:1000D0008FB9779BFECF8FB10895CF93C62FE3ECF6
:1000E000F9E03197F1F700C00000C498E3ECF9E0C3
:1000F0003197F1F700C00000805E0E94680083EC39
:1001000099E00197F1F700C000008C2F0E94680071
:10011000E3ECF9E03197F1F700C00000C49ACF9109
:10012000089587EA91E60197F1F700C0000061E0C9
:1001300081E00E946D0061E082E00E946D0063E05A
:1001400083E00E946D0061E085E00E946D0067E041
:1001500086E00E946D0083EC99E00197F1F700C002
:100160000000C49883EC99E00197F1F700C000000B
:100170008AE20E94680083EC99E00197F1F700C0E1
:10018000000081E00E94680083EC99E00197F1F79C
:1001900000C0000082E00E94680083EC99E00197B3
:1001A000F1F700C0000083E00E94680083EC99E052
:1001B0000197F1F700C0000084E00E94680083EC22
:1001C00099E00197F1F700C0000085E00E94680007
:1001D00083EC99E00197F1F700C00000C49A83EC2A
:1001E00099E00197F1F700C00000C49883EC99E012
:1001F0000197F1F700C0000080E30E94680083ECE3
:1002000099E00197F1F700C0000081E00E946800CA
:1002100083EC99E00197F1F700C0000082E00E94B2
:10022000680083EC99E00197F1F700C0000083E0DB
:100230000E94680083EC99E00197F1F700C000008C
:1002400084E00E94680083EC99E00197F1F700C018
:10025000000085E00E94680083EC99E00197F1F7C7
:1002600000C00000C49A61E081E10E946D006FE26D
:1002700084E00E946D006EE180E00E946D0087EADC
:1002800091E60197F1F700C000000895C39A2FE3AB
:100290008DE093E0215080409040E1F700C00000E5
:1002A000C398089583EC99E00197F1F700C000002E
:1002B000C49883EC99E00197F1F700C0000087E053
:1002C0000E94680083EC99E00197F1F700C00000FC
:1002D00080E70E94680083EC99E00197F1F700C085
:0A02E0000000C49A0895F894FFCFBF
:00000001FF
